{
  "contractName": "Voting",
  "abi": [
    {
      "inputs": [],
      "stateMutability": "nonpayable",
      "type": "constructor"
    },
    {
      "anonymous": false,
      "inputs": [
        {
          "indexed": false,
          "internalType": "uint256",
          "name": "id",
          "type": "uint256"
        },
        {
          "indexed": false,
          "internalType": "string",
          "name": "name",
          "type": "string"
        },
        {
          "indexed": false,
          "internalType": "string",
          "name": "party",
          "type": "string"
        }
      ],
      "name": "CandidateAdded",
      "type": "event"
    },
    {
      "anonymous": false,
      "inputs": [
        {
          "indexed": false,
          "internalType": "address",
          "name": "voter",
          "type": "address"
        },
        {
          "indexed": false,
          "internalType": "uint256",
          "name": "candidateId",
          "type": "uint256"
        }
      ],
      "name": "Voted",
      "type": "event"
    },
    {
      "anonymous": false,
      "inputs": [
        {
          "indexed": false,
          "internalType": "address",
          "name": "voter",
          "type": "address"
        }
      ],
      "name": "VoterRegistered",
      "type": "event"
    },
    {
      "anonymous": false,
      "inputs": [
        {
          "indexed": false,
          "internalType": "bool",
          "name": "isOpen",
          "type": "bool"
        }
      ],
      "name": "VotingStatusChanged",
      "type": "event"
    },
    {
      "inputs": [
        {
          "internalType": "string",
          "name": "",
          "type": "string"
        }
      ],
      "name": "aadharUsed",
      "outputs": [
        {
          "internalType": "bool",
          "name": "",
          "type": "bool"
        }
      ],
      "stateMutability": "view",
      "type": "function",
      "constant": true
    },
    {
      "inputs": [],
      "name": "admin",
      "outputs": [
        {
          "internalType": "address",
          "name": "",
          "type": "address"
        }
      ],
      "stateMutability": "view",
      "type": "function",
      "constant": true
    },
    {
      "inputs": [
        {
          "internalType": "uint256",
          "name": "",
          "type": "uint256"
        }
      ],
      "name": "candidates",
      "outputs": [
        {
          "internalType": "uint256",
          "name": "id",
          "type": "uint256"
        },
        {
          "internalType": "string",
          "name": "name",
          "type": "string"
        },
        {
          "internalType": "string",
          "name": "party",
          "type": "string"
        },
        {
          "internalType": "string",
          "name": "imageHash",
          "type": "string"
        },
        {
          "internalType": "uint256",
          "name": "voteCount",
          "type": "uint256"
        }
      ],
      "stateMutability": "view",
      "type": "function",
      "constant": true
    },
    {
      "inputs": [],
      "name": "candidatesCount",
      "outputs": [
        {
          "internalType": "uint256",
          "name": "",
          "type": "uint256"
        }
      ],
      "stateMutability": "view",
      "type": "function",
      "constant": true
    },
    {
      "inputs": [
        {
          "internalType": "address",
          "name": "",
          "type": "address"
        }
      ],
      "name": "voters",
      "outputs": [
        {
          "internalType": "bool",
          "name": "hasVoted",
          "type": "bool"
        },
        {
          "internalType": "uint256",
          "name": "votedCandidateId",
          "type": "uint256"
        },
        {
          "internalType": "bool",
          "name": "isRegistered",
          "type": "bool"
        }
      ],
      "stateMutability": "view",
      "type": "function",
      "constant": true
    },
    {
      "inputs": [],
      "name": "votingOpen",
      "outputs": [
        {
          "internalType": "bool",
          "name": "",
          "type": "bool"
        }
      ],
      "stateMutability": "view",
      "type": "function",
      "constant": true
    },
    {
      "inputs": [
        {
          "internalType": "string",
          "name": "_name",
          "type": "string"
        },
        {
          "internalType": "string",
          "name": "_party",
          "type": "string"
        },
        {
          "internalType": "string",
          "name": "_imageHash",
          "type": "string"
        }
      ],
      "name": "addCandidate",
      "outputs": [],
      "stateMutability": "nonpayable",
      "type": "function"
    },
    {
      "inputs": [
        {
          "internalType": "address",
          "name": "_voter",
          "type": "address"
        },
        {
          "internalType": "string",
          "name": "_aadharNumber",
          "type": "string"
        }
      ],
      "name": "registerVoter",
      "outputs": [],
      "stateMutability": "nonpayable",
      "type": "function"
    },
    {
      "inputs": [
        {
          "internalType": "uint256",
          "name": "_candidateId",
          "type": "uint256"
        }
      ],
      "name": "vote",
      "outputs": [],
      "stateMutability": "nonpayable",
      "type": "function"
    },
    {
      "inputs": [],
      "name": "startVoting",
      "outputs": [],
      "stateMutability": "nonpayable",
      "type": "function"
    },
    {
      "inputs": [],
      "name": "stopVoting",
      "outputs": [],
      "stateMutability": "nonpayable",
      "type": "function"
    },
    {
      "inputs": [
        {
          "internalType": "uint256",
          "name": "_candidateId",
          "type": "uint256"
        }
      ],
      "name": "getCandidateDetails",
      "outputs": [
        {
          "internalType": "string",
          "name": "name",
          "type": "string"
        },
        {
          "internalType": "string",
          "name": "party",
          "type": "string"
        },
        {
          "internalType": "string",
          "name": "imageHash",
          "type": "string"
        },
        {
          "internalType": "uint256",
          "name": "voteCount",
          "type": "uint256"
        }
      ],
      "stateMutability": "view",
      "type": "function",
      "constant": true
    },
    {
      "inputs": [
        {
          "internalType": "address",
          "name": "_voter",
          "type": "address"
        }
      ],
      "name": "getVoterStatus",
      "outputs": [
        {
          "internalType": "bool",
          "name": "isRegistered",
          "type": "bool"
        },
        {
          "internalType": "bool",
          "name": "hasVoted",
          "type": "bool"
        },
        {
          "internalType": "uint256",
          "name": "votedCandidateId",
          "type": "uint256"
        }
      ],
      "stateMutability": "view",
      "type": "function",
      "constant": true
    }
  ],
  "bytecode": "0x608060405234801561001057600080fd5b50600480546001600160a81b0319163360ff60a01b191617905561115f806100396000396000f3fe608060405234801561001057600080fd5b50600436106100cf5760003560e01c8063a3ec138d1161008c578063e75c581411610066578063e75c58141461025e578063ebbb4f841461028c578063f851a4401461029f578063fab2f86b146102ca57600080fd5b8063a3ec138d146101d3578063a95824b414610227578063ad71f8dc1461024b57600080fd5b80630121b93f146100d45780631ec6b60a146100e957806327f9fd50146100f15780632d35a8a21461011d5780633477ee2e1461013457806378e3ef2014610158575b600080fd5b6100e76100e2366004610c2c565b6102d2565b005b6100e761048e565b6101046100ff366004610c2c565b610502565b6040516101149493929190610c95565b60405180910390f35b61012660035481565b604051908152602001610114565b610147610142366004610c2c565b610769565b604051610114959493929190610ce0565b6101b6610166366004610d4e565b6001600160a01b03166000908152600160208181526040928390208351606081018552815460ff908116151580835294830154938201849052600290920154909116151593018390529192909190565b604080519315158452911515602084015290820152606001610114565b6102086101e1366004610d4e565b600160208190526000918252604090912080549181015460029091015460ff928316921683565b6040805193151584526020840192909252151590820152606001610114565b60045461023b90600160a01b900460ff1681565b6040519015158152602001610114565b6100e7610259366004610e13565b610930565b61023b61026c366004610e9b565b805160208183018101805160028252928201919093012091525460ff1681565b6100e761029a366004610ed8565b610a39565b6004546102b2906001600160a01b031681565b6040516001600160a01b039091168152602001610114565b6100e7610bc4565b600454600160a01b900460ff166103255760405162461bcd60e51b81526020600482015260126024820152712b37ba34b7339034b9903737ba1037b832b760711b60448201526064015b60405180910390fd5b336000908152600160205260409020600281015460ff166103885760405162461bcd60e51b815260206004820152601760248201527f566f746572206973206e6f742072656769737465726564000000000000000000604482015260640161031c565b805460ff16156103ca5760405162461bcd60e51b815260206004820152600d60248201526c105b1c9958591e481d9bdd1959609a1b604482015260640161031c565b6000821180156103dc57506003548211155b61041c5760405162461bcd60e51b8152602060048201526011602482015270496e76616c69642063616e64696461746560781b604482015260640161031c565b805460ff1916600190811782558101829055600082815260208190526040812060040180549161044b83610f26565b909155505060408051338152602081018490527f4d99b957a2bc29a30ebd96a7be8e68fe50a3c701db28a91436490b7d53870ca491015b60405180910390a15050565b6004546001600160a01b031633146104b85760405162461bcd60e51b815260040161031c90610f4d565b6004805460ff60a01b1916600160a01b179055604051600181527f9069a1a16ace751e8690f383e12f87b01e8488ba387e626810bd113fef0417f9906020015b60405180910390a1565b60608060606000808511801561051a57506003548511155b61055a5760405162461bcd60e51b8152602060048201526011602482015270496e76616c69642063616e64696461746560781b604482015260640161031c565b60008060008781526020019081526020016000206040518060a00160405290816000820154815260200160018201805461059390610f8f565b80601f01602080910402602001604051908101604052809291908181526020018280546105bf90610f8f565b801561060c5780601f106105e15761010080835404028352916020019161060c565b820191906000526020600020905b8154815290600101906020018083116105ef57829003601f168201915b5050505050815260200160028201805461062590610f8f565b80601f016020809104026020016040519081016040528092919081815260200182805461065190610f8f565b801561069e5780601f106106735761010080835404028352916020019161069e565b820191906000526020600020905b81548152906001019060200180831161068157829003601f168201915b505050505081526020016003820180546106b790610f8f565b80601f01602080910402602001604051908101604052809291908181526020018280546106e390610f8f565b80156107305780601f1061070557610100808354040283529160200191610730565b820191906000526020600020905b81548152906001019060200180831161071357829003601f168201915b50505050508152602001600482015481525050905080602001518160400151826060015183608001519450945094509450509193509193565b6000602081905290815260409020805460018201805491929161078b90610f8f565b80601f01602080910402602001604051908101604052809291908181526020018280546107b790610f8f565b80156108045780601f106107d957610100808354040283529160200191610804565b820191906000526020600020905b8154815290600101906020018083116107e757829003601f168201915b50505050509080600201805461081990610f8f565b80601f016020809104026020016040519081016040528092919081815260200182805461084590610f8f565b80156108925780601f1061086757610100808354040283529160200191610892565b820191906000526020600020905b81548152906001019060200180831161087557829003601f168201915b5050505050908060030180546108a790610f8f565b80601f01602080910402602001604051908101604052809291908181526020018280546108d390610f8f565b80156109205780601f106108f557610100808354040283529160200191610920565b820191906000526020600020905b81548152906001019060200180831161090357829003601f168201915b5050505050908060040154905085565b6004546001600160a01b0316331461095a5760405162461bcd60e51b815260040161031c90610f4d565b6003805490600061096a83610f26565b90915550506040805160a0810182526003548082526020808301878152838501879052606084018690526000608085018190529283529082905292902081518155915190919060018201906109bf9082611018565b50604082015160028201906109d49082611018565b50606082015160038201906109e99082611018565b50608082015181600401559050507fe64f834082661dd9ed89427b87edb6270fd6dad17198b0938f0edd058914c87f6003548484604051610a2c939291906110d8565b60405180910390a1505050565b6004546001600160a01b03163314610a635760405162461bcd60e51b815260040161031c90610f4d565b6001600160a01b03821660009081526001602052604090206002015460ff1615610acf5760405162461bcd60e51b815260206004820152601860248201527f566f74657220616c726561647920726567697374657265640000000000000000604482015260640161031c565b600281604051610adf919061110d565b9081526040519081900360200190205460ff1615610b355760405162461bcd60e51b81526020600482015260136024820152721058591a185c88185b1c9958591e481d5cd959606a1b604482015260640161031c565b6001600160a01b0382166000908152600160208190526040918290206002908101805460ff1916831790559151909190610b7090849061110d565b90815260405160209181900382018120805460ff1916931515939093179092556001600160a01b03841682527fb6be2187d059cc2a55fe29e0e503b566e1e0f8c8780096e185429350acffd3dd9101610482565b6004546001600160a01b03163314610bee5760405162461bcd60e51b815260040161031c90610f4d565b6004805460ff60a01b19169055604051600081527f9069a1a16ace751e8690f383e12f87b01e8488ba387e626810bd113fef0417f9906020016104f8565b600060208284031215610c3e57600080fd5b5035919050565b60005b83811015610c60578181015183820152602001610c48565b50506000910152565b60008151808452610c81816020860160208601610c45565b601f01601f19169290920160200192915050565b608081526000610ca86080830187610c69565b8281036020840152610cba8187610c69565b90508281036040840152610cce8186610c69565b91505082606083015295945050505050565b85815260a060208201526000610cf960a0830187610c69565b8281036040840152610d0b8187610c69565b90508281036060840152610d1f8186610c69565b9150508260808301529695505050505050565b80356001600160a01b0381168114610d4957600080fd5b919050565b600060208284031215610d6057600080fd5b610d6982610d32565b9392505050565b634e487b7160e01b600052604160045260246000fd5b600082601f830112610d9757600080fd5b813567ffffffffffffffff80821115610db257610db2610d70565b604051601f8301601f19908116603f01168101908282118183101715610dda57610dda610d70565b81604052838152866020858801011115610df357600080fd5b836020870160208301376000602085830101528094505050505092915050565b600080600060608486031215610e2857600080fd5b833567ffffffffffffffff80821115610e4057600080fd5b610e4c87838801610d86565b94506020860135915080821115610e6257600080fd5b610e6e87838801610d86565b93506040860135915080821115610e8457600080fd5b50610e9186828701610d86565b9150509250925092565b600060208284031215610ead57600080fd5b813567ffffffffffffffff811115610ec457600080fd5b610ed084828501610d86565b949350505050565b60008060408385031215610eeb57600080fd5b610ef483610d32565b9150602083013567ffffffffffffffff811115610f1057600080fd5b610f1c85828601610d86565b9150509250929050565b600060018201610f4657634e487b7160e01b600052601160045260246000fd5b5060010190565b60208082526022908201527f4f6e6c792061646d696e2063616e20706572666f726d2074686973206163746960408201526137b760f11b606082015260800190565b600181811c90821680610fa357607f821691505b602082108103610fc357634e487b7160e01b600052602260045260246000fd5b50919050565b601f82111561101357600081815260208120601f850160051c81016020861015610ff05750805b601f850160051c820191505b8181101561100f57828155600101610ffc565b5050505b505050565b815167ffffffffffffffff81111561103257611032610d70565b611046816110408454610f8f565b84610fc9565b602080601f83116001811461107b57600084156110635750858301515b600019600386901b1c1916600185901b17855561100f565b600085815260208120601f198616915b828110156110aa5788860151825594840194600190910190840161108b565b50858210156110c85787850151600019600388901b60f8161c191681555b5050505050600190811b01905550565b8381526060602082015260006110f16060830185610c69565b82810360408401526111038185610c69565b9695505050505050565b6000825161111f818460208701610c45565b919091019291505056fea26469706673582212201364de3412e2571a1325243249b1c411caba0420d3c9324fe2a67395f47bf4d064736f6c63430008130033",
  "immutableReferences": {},
  "source": "// SPDX-License-Identifier: MIT\r\npragma solidity ^0.8.19;\r\n\r\ncontract Voting {\r\n    struct Candidate {\r\n        uint id;\r\n        string name;\r\n        string party;\r\n        string imageHash;\r\n        uint voteCount;\r\n    }\r\n\r\n    struct Voter {\r\n        bool hasVoted;\r\n        uint votedCandidateId;\r\n        bool isRegistered;\r\n    }\r\n\r\n    mapping(uint => Candidate) public candidates;\r\n    mapping(address => Voter) public voters;\r\n    mapping(string => bool) public aadharUsed;\r\n    \r\n    uint public candidatesCount;\r\n    address public admin;\r\n    bool public votingOpen;\r\n\r\n    event CandidateAdded(uint id, string name, string party);\r\n    event VoterRegistered(address voter);\r\n    event Voted(address voter, uint candidateId);\r\n    event VotingStatusChanged(bool isOpen);\r\n\r\n    modifier onlyAdmin() {\r\n        require(msg.sender == admin, \"Only admin can perform this action\");\r\n        _;\r\n    }\r\n\r\n    modifier votingIsOpen() {\r\n        require(votingOpen, \"Voting is not open\");\r\n        _;\r\n    }\r\n\r\n    constructor() {\r\n        admin = msg.sender;\r\n        votingOpen = false;\r\n    }\r\n\r\n    function addCandidate(string memory _name, string memory _party, string memory _imageHash) \r\n        public \r\n        onlyAdmin \r\n    {\r\n        candidatesCount++;\r\n        candidates[candidatesCount] = Candidate(\r\n            candidatesCount,\r\n            _name,\r\n            _party,\r\n            _imageHash,\r\n            0\r\n        );\r\n        emit CandidateAdded(candidatesCount, _name, _party);\r\n    }\r\n\r\n    function registerVoter(address _voter, string memory _aadharNumber) \r\n        public \r\n        onlyAdmin \r\n    {\r\n        require(!voters[_voter].isRegistered, \"Voter already registered\");\r\n        require(!aadharUsed[_aadharNumber], \"Aadhar already used\");\r\n\r\n        voters[_voter].isRegistered = true;\r\n        aadharUsed[_aadharNumber] = true;\r\n        \r\n        emit VoterRegistered(_voter);\r\n    }\r\n\r\n    function vote(uint _candidateId) \r\n        public \r\n        votingIsOpen \r\n    {\r\n        Voter storage sender = voters[msg.sender];\r\n        \r\n        require(sender.isRegistered, \"Voter is not registered\");\r\n        require(!sender.hasVoted, \"Already voted\");\r\n        require(_candidateId > 0 && _candidateId <= candidatesCount, \"Invalid candidate\");\r\n\r\n        sender.hasVoted = true;\r\n        sender.votedCandidateId = _candidateId;\r\n        candidates[_candidateId].voteCount++;\r\n\r\n        emit Voted(msg.sender, _candidateId);\r\n    }\r\n\r\n    function startVoting() public onlyAdmin {\r\n        votingOpen = true;\r\n        emit VotingStatusChanged(true);\r\n    }\r\n\r\n    function stopVoting() public onlyAdmin {\r\n        votingOpen = false;\r\n        emit VotingStatusChanged(false);\r\n    }\r\n\r\n    function getCandidateDetails(uint _candidateId) \r\n        public \r\n        view \r\n        returns (string memory name, string memory party, string memory imageHash, uint voteCount) \r\n    {\r\n        require(_candidateId > 0 && _candidateId <= candidatesCount, \"Invalid candidate\");\r\n        Candidate memory candidate = candidates[_candidateId];\r\n        return (candidate.name, candidate.party, candidate.imageHash, candidate.voteCount);\r\n    }\r\n\r\n    function getVoterStatus(address _voter) \r\n        public \r\n        view \r\n        returns (bool isRegistered, bool hasVoted, uint votedCandidateId) \r\n    {\r\n        Voter memory voter = voters[_voter];\r\n        return (voter.isRegistered, voter.hasVoted, voter.votedCandidateId);\r\n    }\r\n}",
  "sourcePath": "C:\\Users\\harsh\\OneDrive\\Desktop\\CNS\\contracts\\Voting.sol",
  "compiler": {
    "name": "solc",
    "version": "0.8.19+commit.7dd6d404.Emscripten.clang"
  },
  "schemaVersion": "3.4.16",
  "updatedAt": "2025-01-12T06:42:05.363Z",
  "networkType": "ethereum",
  "devdoc": {
    "kind": "dev",
    "methods": {},
    "version": 1
  },
  "userdoc": {
    "kind": "user",
    "methods": {},
    "version": 1
  }
}